{
  "contractName": "MachoVerse",
  "abi": [
    {
      "inputs": [
        {
          "internalType": "address",
          "name": "_verificationAddress",
          "type": "address"
        }
      ],
      "stateMutability": "nonpayable",
      "type": "constructor"
    },
    {
      "anonymous": false,
      "inputs": [
        {
          "indexed": false,
          "internalType": "address",
          "name": "account",
          "type": "address"
        },
        {
          "indexed": false,
          "internalType": "uint256",
          "name": "nonce",
          "type": "uint256"
        }
      ],
      "name": "MintClaimed",
      "type": "event"
    },
    {
      "inputs": [],
      "name": "info",
      "outputs": [
        {
          "internalType": "address",
          "name": "minter",
          "type": "address"
        },
        {
          "internalType": "uint256",
          "name": "validTill",
          "type": "uint256"
        },
        {
          "internalType": "uint256",
          "name": "nonce",
          "type": "uint256"
        }
      ],
      "stateMutability": "view",
      "type": "function"
    },
    {
      "inputs": [],
      "name": "mintTime",
      "outputs": [
        {
          "internalType": "uint256",
          "name": "",
          "type": "uint256"
        }
      ],
      "stateMutability": "view",
      "type": "function"
    },
    {
      "inputs": [],
      "name": "val",
      "outputs": [
        {
          "internalType": "uint256",
          "name": "",
          "type": "uint256"
        }
      ],
      "stateMutability": "view",
      "type": "function"
    },
    {
      "inputs": [
        {
          "internalType": "bytes",
          "name": "message",
          "type": "bytes"
        },
        {
          "internalType": "bytes",
          "name": "signature",
          "type": "bytes"
        }
      ],
      "name": "mintTokens",
      "outputs": [],
      "stateMutability": "nonpayable",
      "type": "function"
    },
    {
      "inputs": [
        {
          "internalType": "address",
          "name": "account",
          "type": "address"
        },
        {
          "internalType": "uint256",
          "name": "tokenId",
          "type": "uint256"
        }
      ],
      "name": "viewBalance",
      "outputs": [
        {
          "internalType": "uint256",
          "name": "",
          "type": "uint256"
        }
      ],
      "stateMutability": "view",
      "type": "function"
    },
    {
      "inputs": [
        {
          "internalType": "address",
          "name": "account",
          "type": "address"
        },
        {
          "internalType": "uint256",
          "name": "numNonces",
          "type": "uint256"
        }
      ],
      "name": "deleteAccountNonces",
      "outputs": [],
      "stateMutability": "nonpayable",
      "type": "function"
    }
  ],
  "bytecode": "0x60806040523480156200001157600080fd5b50604051620010d8380380620010d88339818101604052810190620000379190620000e8565b806000806101000a81548173ffffffffffffffffffffffffffffffffffffffff021916908373ffffffffffffffffffffffffffffffffffffffff160217905550506200011a565b600080fd5b600073ffffffffffffffffffffffffffffffffffffffff82169050919050565b6000620000b08262000083565b9050919050565b620000c281620000a3565b8114620000ce57600080fd5b50565b600081519050620000e281620000b7565b92915050565b6000602082840312156200010157620001006200007e565b5b60006200011184828501620000d1565b91505092915050565b610fae806200012a6000396000f3fe608060405234801561001057600080fd5b50600436106100625760003560e01c8063370158ea146100675780633c6bb436146100875780634e4818f7146100a557806386478122146100c1578063afacb3e5146100df578063cd39bed71461010f575b600080fd5b61006f61012b565b60405161007e93929190610686565b60405180910390f35b61008f610163565b60405161009c91906106bd565b60405180910390f35b6100bf60048036038101906100ba9190610744565b610169565b005b6100c96101ec565b6040516100d691906106bd565b60405180910390f35b6100f960048036038101906100f49190610744565b6101f2565b60405161010691906106bd565b60405180910390f35b610129600480360381019061012491906108ca565b61024d565b005b60068060000160009054906101000a900473ffffffffffffffffffffffffffffffffffffffff16908060010154908060020154905083565b60055481565b60005b818110156101e757600460008473ffffffffffffffffffffffffffffffffffffffff1673ffffffffffffffffffffffffffffffffffffffff168152602001908152602001600020600082815260200190815260200160002060006101000a81549060ff021916905580806101df90610971565b91505061016c565b505050565b600a5481565b6000600260008473ffffffffffffffffffffffffffffffffffffffff1673ffffffffffffffffffffffffffffffffffffffff168152602001908152602001600020600083815260200190815260200160002054905092915050565b60008060009054906101000a900473ffffffffffffffffffffffffffffffffffffffff1690508073ffffffffffffffffffffffffffffffffffffffff1663f7e83aee84846040518363ffffffff1660e01b81526004016102ae929190610a38565b602060405180830381865afa1580156102cb573d6000803e3d6000fd5b505050506040513d601f19601f820116820180604052508101906102ef9190610aa7565b61032e576040517f08c379a000000000000000000000000000000000000000000000000000000000815260040161032590610b57565b60405180910390fd5b60008060008061033d8761054e565b93509350935093508373ffffffffffffffffffffffffffffffffffffffff163373ffffffffffffffffffffffffffffffffffffffff16146103b3576040517f08c379a00000000000000000000000000000000000000000000000000000000081526004016103aa90610be9565b60405180910390fd5b600460003373ffffffffffffffffffffffffffffffffffffffff1673ffffffffffffffffffffffffffffffffffffffff168152602001908152602001600020600083815260200190815260200160002060009054906101000a900460ff1615610451576040517f08c379a000000000000000000000000000000000000000000000000000000000815260040161044890610c7b565b60405180910390fd5b824210610493576040517f08c379a000000000000000000000000000000000000000000000000000000000815260040161048a90610d0d565b60405180910390fd5b82600a819055506104a381610578565b6001600460003373ffffffffffffffffffffffffffffffffffffffff1673ffffffffffffffffffffffffffffffffffffffff168152602001908152602001600020600084815260200190815260200160002060006101000a81548160ff0219169083151502179055507fd74752b13281df13701575f3a507e9b1242e0b5fb040143211c481c1fce573a6338360405161053d929190610d2d565b60405180910390a150505050505050565b60008060006060848060200190518101906105699190610ec6565b93509350935093509193509193565b60005b81518110156106285781818151811061059757610596610f49565b5b602002602001015160200151600260003373ffffffffffffffffffffffffffffffffffffffff1673ffffffffffffffffffffffffffffffffffffffff16815260200190815260200160002060008484815181106105f7576105f6610f49565b5b602002602001015160000151815260200190815260200160002081905550808061062090610971565b91505061057b565b5050565b600073ffffffffffffffffffffffffffffffffffffffff82169050919050565b60006106578261062c565b9050919050565b6106678161064c565b82525050565b6000819050919050565b6106808161066d565b82525050565b600060608201905061069b600083018661065e565b6106a86020830185610677565b6106b56040830184610677565b949350505050565b60006020820190506106d26000830184610677565b92915050565b6000604051905090565b600080fd5b600080fd5b6106f58161064c565b811461070057600080fd5b50565b600081359050610712816106ec565b92915050565b6107218161066d565b811461072c57600080fd5b50565b60008135905061073e81610718565b92915050565b6000806040838503121561075b5761075a6106e2565b5b600061076985828601610703565b925050602061077a8582860161072f565b9150509250929050565b600080fd5b600080fd5b6000601f19601f8301169050919050565b7f4e487b7100000000000000000000000000000000000000000000000000000000600052604160045260246000fd5b6107d78261078e565b810181811067ffffffffffffffff821117156107f6576107f561079f565b5b80604052505050565b60006108096106d8565b905061081582826107ce565b919050565b600067ffffffffffffffff8211156108355761083461079f565b5b61083e8261078e565b9050602081019050919050565b82818337600083830152505050565b600061086d6108688461081a565b6107ff565b90508281526020810184848401111561088957610888610789565b5b61089484828561084b565b509392505050565b600082601f8301126108b1576108b0610784565b5b81356108c184826020860161085a565b91505092915050565b600080604083850312156108e1576108e06106e2565b5b600083013567ffffffffffffffff8111156108ff576108fe6106e7565b5b61090b8582860161089c565b925050602083013567ffffffffffffffff81111561092c5761092b6106e7565b5b6109388582860161089c565b9150509250929050565b7f4e487b7100000000000000000000000000000000000000000000000000000000600052601160045260246000fd5b600061097c8261066d565b91507fffffffffffffffffffffffffffffffffffffffffffffffffffffffffffffffff82036109ae576109ad610942565b5b600182019050919050565b600081519050919050565b600082825260208201905092915050565b60005b838110156109f35780820151818401526020810190506109d8565b60008484015250505050565b6000610a0a826109b9565b610a1481856109c4565b9350610a248185602086016109d5565b610a2d8161078e565b840191505092915050565b60006040820190508181036000830152610a5281856109ff565b90508181036020830152610a6681846109ff565b90509392505050565b60008115159050919050565b610a8481610a6f565b8114610a8f57600080fd5b50565b600081519050610aa181610a7b565b92915050565b600060208284031215610abd57610abc6106e2565b5b6000610acb84828501610a92565b91505092915050565b600082825260208201905092915050565b7f4d6163686f56657273653a20496e76616c6964206d696e74696e67206d65737360008201527f6167652100000000000000000000000000000000000000000000000000000000602082015250565b6000610b41602483610ad4565b9150610b4c82610ae5565b604082019050919050565b60006020820190508181036000830152610b7081610b34565b9050919050565b7f4d6163686f56657273653a2054686973206973206e6f7420796f7572206d696e60008201527f742e000000000000000000000000000000000000000000000000000000000000602082015250565b6000610bd3602283610ad4565b9150610bde82610b77565b604082019050919050565b60006020820190508181036000830152610c0281610bc6565b9050919050565b7f4d6163686f56657273653a2054686973206d696e742068617320616c7265616460008201527f79206265656e20636c61696d65642e0000000000000000000000000000000000602082015250565b6000610c65602f83610ad4565b9150610c7082610c09565b604082019050919050565b60006020820190508181036000830152610c9481610c58565b9050919050565b7f4d6163686f56657273653a2054686973206d696e74206861732065787069726560008201527f642c20706c656173652063726561746520616e6f74686572206d696e742e0000602082015250565b6000610cf7603e83610ad4565b9150610d0282610c9b565b604082019050919050565b60006020820190508181036000830152610d2681610cea565b9050919050565b6000604082019050610d42600083018561065e565b610d4f6020830184610677565b9392505050565b6000610d618261062c565b9050919050565b610d7181610d56565b8114610d7c57600080fd5b50565b600081519050610d8e81610d68565b92915050565b600081519050610da381610718565b92915050565b600067ffffffffffffffff821115610dc457610dc361079f565b5b602082029050602081019050919050565b600080fd5b600080fd5b600060408284031215610df557610df4610dda565b5b610dff60406107ff565b90506000610e0f84828501610d94565b6000830152506020610e2384828501610d94565b60208301525092915050565b6000610e42610e3d84610da9565b6107ff565b90508083825260208201905060408402830185811115610e6557610e64610dd5565b5b835b81811015610e8e5780610e7a8882610ddf565b845260208401935050604081019050610e67565b5050509392505050565b600082601f830112610ead57610eac610784565b5b8151610ebd848260208601610e2f565b91505092915050565b60008060008060808587031215610ee057610edf6106e2565b5b6000610eee87828801610d7f565b9450506020610eff87828801610d94565b9350506040610f1087828801610d94565b925050606085015167ffffffffffffffff811115610f3157610f306106e7565b5b610f3d87828801610e98565b91505092959194509250565b7f4e487b7100000000000000000000000000000000000000000000000000000000600052603260045260246000fdfea26469706673582212203b7dc80da06c422b030c7412018cc7113aa7d79be111355c0631708a81ce9aee64736f6c63430008110033",
  "immutableReferences": {},
  "source": "pragma solidity ^0.8.7;\r\n\r\nimport \"./VerifyBytes.sol\";\r\n\r\ncontract MachoVerse {\r\n\r\n    constructor(address _verificationAddress){\r\n        verificationAddress = _verificationAddress;\r\n    }\r\n\r\n    address verificationAddress;\r\n\r\n    mapping (uint256 => TokenType) private _tokenIdToTokenType;\r\n\r\n    mapping (address => mapping(uint256 => uint256)) private _accountToTokenBalances;\r\n\r\n    mapping(uint256 => uint256) private _totalTokens;\r\n\r\n    mapping(address => mapping(uint256 => bool)) private _accountNonces;\r\n\r\n    uint256 public val;\r\n\r\n    ClaimInfo public info;\r\n\r\n    enum TokenType {\r\n        ERC20,\r\n        ERC721,\r\n        ERC1155\r\n    }\r\n\r\n    struct MintInfo {\r\n        uint256 tokenId;\r\n        uint256 amount;\r\n    }\r\n\r\n    struct ClaimInfo {\r\n        address minter;\r\n        uint256 validTill;\r\n        uint256 nonce;\r\n        MintInfo[] mintingDetails;\r\n    }\r\n\r\n    uint256 public mintTime;\r\n\r\n    event MintClaimed(address account, uint256 nonce);\r\n\r\n    function mintTokens(bytes memory message, bytes memory signature) external\r\n    {\r\n        VerifyBytes verificationContract = VerifyBytes(verificationAddress);\r\n        require(verificationContract.verify(message, signature), \"MachoVerse: Invalid minting message!\");\r\n        (address minter, uint256 validTill, uint256 nonce, MintInfo[] memory mintingDetails) = decodeClaimInfo(message);\r\n        require(msg.sender == minter, \"MachoVerse: This is not your mint.\");\r\n        require(!_accountNonces[msg.sender][nonce], \"MachoVerse: This mint has already been claimed.\");\r\n        require(block.timestamp < validTill, \"MachoVerse: This mint has expired, please create another mint.\");\r\n        mintTime = validTill;\r\n        processMint(mintingDetails);\r\n        _accountNonces[msg.sender][nonce] = true;\r\n        emit MintClaimed(msg.sender, nonce);\r\n    }\r\n\r\n    function decodeClaimInfo(bytes memory message) internal pure returns (address, uint256, uint256, MintInfo[] memory)\r\n    {\r\n        return abi.decode(message, (address, uint256, uint256, MintInfo[])); //ClaimInfo struct\r\n    }\r\n\r\n    function processMint(MintInfo[] memory mintInfo) internal \r\n    {\r\n        for(uint256 i = 0; i < mintInfo.length; i++)\r\n        {\r\n            _accountToTokenBalances[msg.sender][mintInfo[i].tokenId] = mintInfo[i].amount;\r\n        }\r\n    }\r\n\r\n    function viewBalance(address account, uint256 tokenId) external view returns (uint256)\r\n    {\r\n        return _accountToTokenBalances[account][tokenId];\r\n    }\r\n\r\n    function deleteAccountNonces(address account, uint256 numNonces) external {\r\n        for(uint i = 0; i < numNonces; i++){\r\n            delete _accountNonces[account][i];\r\n        }\r\n    }\r\n}",
  "sourcePath": "E:\\Coding\\Websites\\Web3 Game\\Contracts\\Verify\\contracts\\Machoverse.sol",
  "compiler": {
    "name": "solc",
    "version": "0.8.17+commit.8df45f5f.Emscripten.clang"
  },
  "schemaVersion": "3.4.10",
  "updatedAt": "2023-06-22T17:42:36.296Z",
  "devdoc": {
    "kind": "dev",
    "methods": {},
    "version": 1
  },
  "userdoc": {
    "kind": "user",
    "methods": {},
    "version": 1
  }
}