{
  "contractName": "Machoverse",
  "abi": [
    {
      "inputs": [
        {
          "internalType": "address",
          "name": "_messageSigner",
          "type": "address"
        },
        {
          "internalType": "address",
          "name": "_verificationAddress",
          "type": "address"
        }
      ],
      "stateMutability": "nonpayable",
      "type": "constructor"
    },
    {
      "anonymous": false,
      "inputs": [
        {
          "indexed": true,
          "internalType": "address",
          "name": "account",
          "type": "address"
        },
        {
          "indexed": true,
          "internalType": "address",
          "name": "operator",
          "type": "address"
        },
        {
          "indexed": false,
          "internalType": "bool",
          "name": "approved",
          "type": "bool"
        }
      ],
      "name": "ApprovalForAll",
      "type": "event"
    },
    {
      "anonymous": false,
      "inputs": [
        {
          "indexed": false,
          "internalType": "address",
          "name": "account",
          "type": "address"
        },
        {
          "indexed": false,
          "internalType": "uint256[]",
          "name": "ids",
          "type": "uint256[]"
        },
        {
          "indexed": false,
          "internalType": "uint256[]",
          "name": "amounts",
          "type": "uint256[]"
        }
      ],
      "name": "GameMint",
      "type": "event"
    },
    {
      "anonymous": false,
      "inputs": [
        {
          "indexed": false,
          "internalType": "address",
          "name": "account",
          "type": "address"
        },
        {
          "indexed": false,
          "internalType": "uint256",
          "name": "nonce",
          "type": "uint256"
        }
      ],
      "name": "MintClaimed",
      "type": "event"
    },
    {
      "anonymous": false,
      "inputs": [
        {
          "indexed": true,
          "internalType": "address",
          "name": "previousOwner",
          "type": "address"
        },
        {
          "indexed": true,
          "internalType": "address",
          "name": "newOwner",
          "type": "address"
        }
      ],
      "name": "OwnershipTransferred",
      "type": "event"
    },
    {
      "anonymous": false,
      "inputs": [
        {
          "indexed": true,
          "internalType": "address",
          "name": "operator",
          "type": "address"
        },
        {
          "indexed": true,
          "internalType": "address",
          "name": "from",
          "type": "address"
        },
        {
          "indexed": true,
          "internalType": "address",
          "name": "to",
          "type": "address"
        },
        {
          "indexed": false,
          "internalType": "uint256[]",
          "name": "ids",
          "type": "uint256[]"
        },
        {
          "indexed": false,
          "internalType": "uint256[]",
          "name": "values",
          "type": "uint256[]"
        }
      ],
      "name": "TransferBatch",
      "type": "event"
    },
    {
      "anonymous": false,
      "inputs": [
        {
          "indexed": true,
          "internalType": "address",
          "name": "operator",
          "type": "address"
        },
        {
          "indexed": true,
          "internalType": "address",
          "name": "from",
          "type": "address"
        },
        {
          "indexed": true,
          "internalType": "address",
          "name": "to",
          "type": "address"
        },
        {
          "indexed": false,
          "internalType": "uint256",
          "name": "id",
          "type": "uint256"
        },
        {
          "indexed": false,
          "internalType": "uint256",
          "name": "value",
          "type": "uint256"
        }
      ],
      "name": "TransferSingle",
      "type": "event"
    },
    {
      "anonymous": false,
      "inputs": [
        {
          "indexed": false,
          "internalType": "string",
          "name": "value",
          "type": "string"
        },
        {
          "indexed": true,
          "internalType": "uint256",
          "name": "id",
          "type": "uint256"
        }
      ],
      "name": "URI",
      "type": "event"
    },
    {
      "inputs": [
        {
          "internalType": "address",
          "name": "account",
          "type": "address"
        },
        {
          "internalType": "uint256",
          "name": "id",
          "type": "uint256"
        }
      ],
      "name": "balanceOf",
      "outputs": [
        {
          "internalType": "uint256",
          "name": "",
          "type": "uint256"
        }
      ],
      "stateMutability": "view",
      "type": "function",
      "constant": true
    },
    {
      "inputs": [
        {
          "internalType": "address[]",
          "name": "accounts",
          "type": "address[]"
        },
        {
          "internalType": "uint256[]",
          "name": "ids",
          "type": "uint256[]"
        }
      ],
      "name": "balanceOfBatch",
      "outputs": [
        {
          "internalType": "uint256[]",
          "name": "",
          "type": "uint256[]"
        }
      ],
      "stateMutability": "view",
      "type": "function",
      "constant": true
    },
    {
      "inputs": [
        {
          "internalType": "address",
          "name": "account",
          "type": "address"
        },
        {
          "internalType": "address",
          "name": "operator",
          "type": "address"
        }
      ],
      "name": "isApprovedForAll",
      "outputs": [
        {
          "internalType": "bool",
          "name": "",
          "type": "bool"
        }
      ],
      "stateMutability": "view",
      "type": "function",
      "constant": true
    },
    {
      "inputs": [
        {
          "internalType": "address",
          "name": "user",
          "type": "address"
        },
        {
          "internalType": "uint256",
          "name": "tokenId",
          "type": "uint256"
        },
        {
          "internalType": "uint256",
          "name": "amount",
          "type": "uint256"
        }
      ],
      "name": "isTransferable",
      "outputs": [
        {
          "internalType": "bool",
          "name": "",
          "type": "bool"
        }
      ],
      "stateMutability": "view",
      "type": "function",
      "constant": true
    },
    {
      "inputs": [],
      "name": "messageSigner",
      "outputs": [
        {
          "internalType": "address",
          "name": "",
          "type": "address"
        }
      ],
      "stateMutability": "view",
      "type": "function",
      "constant": true
    },
    {
      "inputs": [],
      "name": "owner",
      "outputs": [
        {
          "internalType": "address",
          "name": "",
          "type": "address"
        }
      ],
      "stateMutability": "view",
      "type": "function",
      "constant": true
    },
    {
      "inputs": [],
      "name": "renounceOwnership",
      "outputs": [],
      "stateMutability": "nonpayable",
      "type": "function"
    },
    {
      "inputs": [
        {
          "internalType": "uint256",
          "name": "tokenId",
          "type": "uint256"
        },
        {
          "internalType": "address",
          "name": "revokedContract",
          "type": "address"
        }
      ],
      "name": "revokeTransferable",
      "outputs": [],
      "stateMutability": "nonpayable",
      "type": "function"
    },
    {
      "inputs": [
        {
          "internalType": "address",
          "name": "from",
          "type": "address"
        },
        {
          "internalType": "address",
          "name": "to",
          "type": "address"
        },
        {
          "internalType": "uint256[]",
          "name": "ids",
          "type": "uint256[]"
        },
        {
          "internalType": "uint256[]",
          "name": "amounts",
          "type": "uint256[]"
        },
        {
          "internalType": "bytes",
          "name": "data",
          "type": "bytes"
        }
      ],
      "name": "safeBatchTransferFrom",
      "outputs": [],
      "stateMutability": "nonpayable",
      "type": "function"
    },
    {
      "inputs": [
        {
          "internalType": "address",
          "name": "from",
          "type": "address"
        },
        {
          "internalType": "address",
          "name": "to",
          "type": "address"
        },
        {
          "internalType": "uint256",
          "name": "id",
          "type": "uint256"
        },
        {
          "internalType": "uint256",
          "name": "amount",
          "type": "uint256"
        },
        {
          "internalType": "bytes",
          "name": "data",
          "type": "bytes"
        }
      ],
      "name": "safeTransferFrom",
      "outputs": [],
      "stateMutability": "nonpayable",
      "type": "function"
    },
    {
      "inputs": [
        {
          "internalType": "address",
          "name": "operator",
          "type": "address"
        },
        {
          "internalType": "bool",
          "name": "approved",
          "type": "bool"
        }
      ],
      "name": "setApprovalForAll",
      "outputs": [],
      "stateMutability": "nonpayable",
      "type": "function"
    },
    {
      "inputs": [
        {
          "internalType": "address",
          "name": "contractAddress",
          "type": "address"
        },
        {
          "internalType": "bool",
          "name": "approve",
          "type": "bool"
        }
      ],
      "name": "setContractApproval",
      "outputs": [],
      "stateMutability": "nonpayable",
      "type": "function"
    },
    {
      "inputs": [
        {
          "internalType": "address",
          "name": "user",
          "type": "address"
        },
        {
          "internalType": "uint256",
          "name": "tokenId",
          "type": "uint256"
        },
        {
          "internalType": "uint256",
          "name": "amount",
          "type": "uint256"
        },
        {
          "internalType": "bool",
          "name": "canTransfer",
          "type": "bool"
        }
      ],
      "name": "setTransferable",
      "outputs": [],
      "stateMutability": "nonpayable",
      "type": "function"
    },
    {
      "inputs": [
        {
          "internalType": "bytes4",
          "name": "interfaceId",
          "type": "bytes4"
        }
      ],
      "name": "supportsInterface",
      "outputs": [
        {
          "internalType": "bool",
          "name": "",
          "type": "bool"
        }
      ],
      "stateMutability": "view",
      "type": "function",
      "constant": true
    },
    {
      "inputs": [
        {
          "internalType": "address",
          "name": "newOwner",
          "type": "address"
        }
      ],
      "name": "transferOwnership",
      "outputs": [],
      "stateMutability": "nonpayable",
      "type": "function"
    },
    {
      "inputs": [],
      "name": "verificationContract",
      "outputs": [
        {
          "internalType": "contract VerifyBytes",
          "name": "",
          "type": "address"
        }
      ],
      "stateMutability": "view",
      "type": "function",
      "constant": true
    },
    {
      "inputs": [
        {
          "internalType": "bytes",
          "name": "message",
          "type": "bytes"
        },
        {
          "internalType": "bytes",
          "name": "signature",
          "type": "bytes"
        }
      ],
      "name": "mintTokens",
      "outputs": [],
      "stateMutability": "nonpayable",
      "type": "function"
    },
    {
      "inputs": [
        {
          "internalType": "uint256[]",
          "name": "ids",
          "type": "uint256[]"
        },
        {
          "internalType": "uint256[]",
          "name": "amounts",
          "type": "uint256[]"
        }
      ],
      "name": "mintToGame",
      "outputs": [],
      "stateMutability": "nonpayable",
      "type": "function"
    },
    {
      "inputs": [
        {
          "internalType": "uint256",
          "name": "tokenId",
          "type": "uint256"
        }
      ],
      "name": "uri",
      "outputs": [
        {
          "internalType": "string",
          "name": "",
          "type": "string"
        }
      ],
      "stateMutability": "view",
      "type": "function",
      "constant": true
    },
    {
      "inputs": [
        {
          "internalType": "address",
          "name": "newSigner",
          "type": "address"
        }
      ],
      "name": "changeMessageSigner",
      "outputs": [],
      "stateMutability": "nonpayable",
      "type": "function"
    },
    {
      "inputs": [
        {
          "internalType": "uint256",
          "name": "tokenId",
          "type": "uint256"
        },
        {
          "internalType": "string",
          "name": "_uri",
          "type": "string"
        }
      ],
      "name": "updateTokenURI",
      "outputs": [],
      "stateMutability": "nonpayable",
      "type": "function"
    },
    {
      "inputs": [
        {
          "internalType": "address",
          "name": "account",
          "type": "address"
        },
        {
          "internalType": "uint256",
          "name": "numNonces",
          "type": "uint256"
        }
      ],
      "name": "deleteAccountNonces",
      "outputs": [],
      "stateMutability": "nonpayable",
      "type": "function"
    }
  ],
  "bytecode": "0x60806040523480156200001157600080fd5b50604051620054d2380380620054d2833981810160405281019062000037919062000250565b6040518060200160405280600081525080620000686200005c6200010560201b60201c565b6200010d60201b60201c565b6200007981620001d160201b60201c565b505081600760006101000a81548173ffffffffffffffffffffffffffffffffffffffff021916908373ffffffffffffffffffffffffffffffffffffffff16021790555080600860006101000a81548173ffffffffffffffffffffffffffffffffffffffff021916908373ffffffffffffffffffffffffffffffffffffffff1602179055505050620005f8565b600033905090565b60008060009054906101000a900473ffffffffffffffffffffffffffffffffffffffff169050816000806101000a81548173ffffffffffffffffffffffffffffffffffffffff021916908373ffffffffffffffffffffffffffffffffffffffff1602179055508173ffffffffffffffffffffffffffffffffffffffff168173ffffffffffffffffffffffffffffffffffffffff167f8be0079c531659141344cd1fd0a4f28419497f9722a3daafe3b4186f6b6457e060405160405180910390a35050565b8060039081620001e2919062000511565b5050565b600080fd5b600073ffffffffffffffffffffffffffffffffffffffff82169050919050565b60006200021882620001eb565b9050919050565b6200022a816200020b565b81146200023657600080fd5b50565b6000815190506200024a816200021f565b92915050565b600080604083850312156200026a5762000269620001e6565b5b60006200027a8582860162000239565b92505060206200028d8582860162000239565b9150509250929050565b600081519050919050565b7f4e487b7100000000000000000000000000000000000000000000000000000000600052604160045260246000fd5b7f4e487b7100000000000000000000000000000000000000000000000000000000600052602260045260246000fd5b600060028204905060018216806200031957607f821691505b6020821081036200032f576200032e620002d1565b5b50919050565b60008190508160005260206000209050919050565b60006020601f8301049050919050565b600082821b905092915050565b600060088302620003997fffffffffffffffffffffffffffffffffffffffffffffffffffffffffffffffff826200035a565b620003a586836200035a565b95508019841693508086168417925050509392505050565b6000819050919050565b6000819050919050565b6000620003f2620003ec620003e684620003bd565b620003c7565b620003bd565b9050919050565b6000819050919050565b6200040e83620003d1565b620004266200041d82620003f9565b84845462000367565b825550505050565b600090565b6200043d6200042e565b6200044a81848462000403565b505050565b5b8181101562000472576200046660008262000433565b60018101905062000450565b5050565b601f821115620004c1576200048b8162000335565b62000496846200034a565b81016020851015620004a6578190505b620004be620004b5856200034a565b8301826200044f565b50505b505050565b600082821c905092915050565b6000620004e660001984600802620004c6565b1980831691505092915050565b6000620005018383620004d3565b9150826002028217905092915050565b6200051c8262000297565b67ffffffffffffffff811115620005385762000537620002a2565b5b62000544825462000300565b6200055182828562000476565b600060209050601f83116001811462000589576000841562000574578287015190505b620005808582620004f3565b865550620005f0565b601f198416620005998662000335565b60005b82811015620005c3578489015182556001820191506020850194506020810190506200059c565b86831015620005e35784890151620005df601f891682620004d3565b8355505b6001600288020188555050505b505050505050565b614eca80620006086000396000f3fe608060405234801561001057600080fd5b50600436106101415760003560e01c80638da5cb5b116100b8578063e3460fa21161007c578063e3460fa21461035e578063e985e9c51461037a578063ee08fe9b146103aa578063f242432a146103c6578063f2fde38b146103e2578063f52d7c9d146103fe57610141565b80638da5cb5b146102d0578063a22cb465146102ee578063cd39bed71461030a578063d068eb1f14610326578063e16c26141461034257610141565b80632eb2c2d61161010a5780632eb2c2d6146102105780634b7162731461022c5780634e1273f41461025c5780634e4818f71461028c578063715018a6146102a85780637e222661146102b257610141565b8062fdd58e1461014657806301ffc9a714610176578063080387b4146101a65780630e89341c146101c457806318e97fd1146101f4575b600080fd5b610160600480360381019061015b9190612ae8565b61041a565b60405161016d9190612b37565b60405180910390f35b610190600480360381019061018b9190612baa565b6104e3565b60405161019d9190612bf2565b60405180910390f35b6101ae6105c5565b6040516101bb9190612c1c565b60405180910390f35b6101de60048036038101906101d99190612c37565b6105eb565b6040516101eb9190612cf4565b60405180910390f35b61020e60048036038101906102099190612e4b565b610690565b005b61022a60048036038101906102259190613010565b6106bd565b005b610246600480360381019061024191906130df565b61075e565b6040516102539190612bf2565b60405180910390f35b610276600480360381019061027191906131f5565b6107d1565b604051610283919061332b565b60405180910390f35b6102a660048036038101906102a19190612ae8565b6108ea565b005b6102b061096d565b005b6102ba610981565b6040516102c791906133ac565b60405180910390f35b6102d86109a7565b6040516102e59190612c1c565b60405180910390f35b610308600480360381019061030391906133f3565b6109d0565b005b610324600480360381019061031f9190613433565b6109e6565b005b610340600480360381019061033b91906134ab565b610d16565b005b61035c600480360381019061035791906133f3565b610d62565b005b610378600480360381019061037391906134d8565b610e57565b005b610394600480360381019061038f919061353f565b611282565b6040516103a19190612bf2565b60405180910390f35b6103c460048036038101906103bf919061357f565b611316565b005b6103e060048036038101906103db91906135f7565b611360565b005b6103fc60048036038101906103f791906134ab565b611401565b005b6104186004803603810190610413919061368e565b611484565b005b60008073ffffffffffffffffffffffffffffffffffffffff168373ffffffffffffffffffffffffffffffffffffffff160361048a576040517f08c379a000000000000000000000000000000000000000000000000000000000815260040161048190613740565b60405180910390fd5b6001600083815260200190815260200160002060008473ffffffffffffffffffffffffffffffffffffffff1673ffffffffffffffffffffffffffffffffffffffff16815260200190815260200160002054905092915050565b60007fd9b67a26000000000000000000000000000000000000000000000000000000007bffffffffffffffffffffffffffffffffffffffffffffffffffffffff1916827bffffffffffffffffffffffffffffffffffffffffffffffffffffffff191614806105ae57507f0e89341c000000000000000000000000000000000000000000000000000000007bffffffffffffffffffffffffffffffffffffffffffffffffffffffff1916827bffffffffffffffffffffffffffffffffffffffffffffffffffffffff1916145b806105be57506105bd826116f6565b5b9050919050565b600760009054906101000a900473ffffffffffffffffffffffffffffffffffffffff1681565b6060600a6000838152602001908152602001600020805461060b9061378f565b80601f01602080910402602001604051908101604052809291908181526020018280546106379061378f565b80156106845780601f1061065957610100808354040283529160200191610684565b820191906000526020600020905b81548152906001019060200180831161066757829003601f168201915b50505050509050919050565b610698611760565b80600a600084815260200190815260200160002090816106b89190613962565b505050565b6106c56117de565b73ffffffffffffffffffffffffffffffffffffffff168573ffffffffffffffffffffffffffffffffffffffff16148061070b575061070a856107056117de565b611282565b5b61074a576040517f08c379a000000000000000000000000000000000000000000000000000000000815260040161074190613aa6565b60405180910390fd5b61075785858585856117e6565b5050505050565b600081600460008673ffffffffffffffffffffffffffffffffffffffff1673ffffffffffffffffffffffffffffffffffffffff1681526020019081526020016000206000858152602001908152602001600020546107bc868661041a565b6107c69190613af5565b101590509392505050565b60608151835114610817576040517f08c379a000000000000000000000000000000000000000000000000000000000815260040161080e90613b9b565b60405180910390fd5b6000835167ffffffffffffffff81111561083457610833612d20565b5b6040519080825280602002602001820160405280156108625781602001602082028036833780820191505090505b50905060005b84518110156108df576108af85828151811061088757610886613bbb565b5b60200260200101518583815181106108a2576108a1613bbb565b5b602002602001015161041a565b8282815181106108c2576108c1613bbb565b5b602002602001018181525050806108d890613bea565b9050610868565b508091505092915050565b60005b8181101561096857600960008473ffffffffffffffffffffffffffffffffffffffff1673ffffffffffffffffffffffffffffffffffffffff168152602001908152602001600020600082815260200190815260200160002060006101000a81549060ff0219169055808061096090613bea565b9150506108ed565b505050565b610975611760565b61097f6000611b0a565b565b600860009054906101000a900473ffffffffffffffffffffffffffffffffffffffff1681565b60008060009054906101000a900473ffffffffffffffffffffffffffffffffffffffff16905090565b6109e26109db6117de565b8383611bce565b5050565b600860009054906101000a900473ffffffffffffffffffffffffffffffffffffffff1673ffffffffffffffffffffffffffffffffffffffff1663294d2bb18383600760009054906101000a900473ffffffffffffffffffffffffffffffffffffffff166040518463ffffffff1660e01b8152600401610a6793929190613c87565b602060405180830381865afa158015610a84573d6000803e3d6000fd5b505050506040513d601f19601f82011682018060405250810190610aa89190613ce1565b610ae7576040517f08c379a0000000000000000000000000000000000000000000000000000000008152600401610ade90613d80565b60405180910390fd5b6000806000806000610af887611d3a565b945094509450945094508473ffffffffffffffffffffffffffffffffffffffff163373ffffffffffffffffffffffffffffffffffffffff1614610b70576040517f08c379a0000000000000000000000000000000000000000000000000000000008152600401610b6790613e12565b60405180910390fd5b600960003373ffffffffffffffffffffffffffffffffffffffff1673ffffffffffffffffffffffffffffffffffffffff168152602001908152602001600020600084815260200190815260200160002060009054906101000a900460ff1615610c0e576040517f08c379a0000000000000000000000000000000000000000000000000000000008152600401610c0590613ea4565b60405180910390fd5b834210610c50576040517f08c379a0000000000000000000000000000000000000000000000000000000008152600401610c4790613f36565b60405180910390fd5b6001600960003373ffffffffffffffffffffffffffffffffffffffff1673ffffffffffffffffffffffffffffffffffffffff168152602001908152602001600020600085815260200190815260200160002060006101000a81548160ff021916908315150217905550610cd433838360405180602001604052806000815250611d69565b7fd74752b13281df13701575f3a507e9b1242e0b5fb040143211c481c1fce573a63384604051610d05929190613f56565b60405180910390a150505050505050565b610d1e611760565b80600760006101000a81548173ffffffffffffffffffffffffffffffffffffffff021916908373ffffffffffffffffffffffffffffffffffffffff16021790555050565b610d6a611760565b801515600560008473ffffffffffffffffffffffffffffffffffffffff1673ffffffffffffffffffffffffffffffffffffffff16815260200190815260200160002060009054906101000a900460ff16151503610dfc576040517f08c379a0000000000000000000000000000000000000000000000000000000008152600401610df390614017565b60405180910390fd5b80600560008473ffffffffffffffffffffffffffffffffffffffff1673ffffffffffffffffffffffffffffffffffffffff16815260200190815260200160002060006101000a81548160ff0219169083151502179055505050565b600560003373ffffffffffffffffffffffffffffffffffffffff1673ffffffffffffffffffffffffffffffffffffffff16815260200190815260200160002060009054906101000a900460ff16610ee3576040517f08c379a0000000000000000000000000000000000000000000000000000000008152600401610eda906140a9565b60405180910390fd5b80156110c95781600660003373ffffffffffffffffffffffffffffffffffffffff1673ffffffffffffffffffffffffffffffffffffffff16815260200190815260200160002060008673ffffffffffffffffffffffffffffffffffffffff1673ffffffffffffffffffffffffffffffffffffffff1681526020019081526020016000206000858152602001908152602001600020541015610fb9576040517f08c379a0000000000000000000000000000000000000000000000000000000008152600401610fb090614161565b60405180910390fd5b81600460008673ffffffffffffffffffffffffffffffffffffffff1673ffffffffffffffffffffffffffffffffffffffff168152602001908152602001600020600085815260200190815260200160002060008282546110199190613af5565b9250508190555081600660003373ffffffffffffffffffffffffffffffffffffffff1673ffffffffffffffffffffffffffffffffffffffff16815260200190815260200160002060008673ffffffffffffffffffffffffffffffffffffffff1673ffffffffffffffffffffffffffffffffffffffff168152602001908152602001600020600085815260200190815260200160002060008282546110bd9190613af5565b9250508190555061127c565b81600460008673ffffffffffffffffffffffffffffffffffffffff1673ffffffffffffffffffffffffffffffffffffffff168152602001908152602001600020600085815260200190815260200160002054611125868661041a565b61112f9190613af5565b1015611170576040517f08c379a000000000000000000000000000000000000000000000000000000000815260040161116790614219565b60405180910390fd5b81600460008673ffffffffffffffffffffffffffffffffffffffff1673ffffffffffffffffffffffffffffffffffffffff168152602001908152602001600020600085815260200190815260200160002060008282546111d09190614239565b9250508190555081600660003373ffffffffffffffffffffffffffffffffffffffff1673ffffffffffffffffffffffffffffffffffffffff16815260200190815260200160002060008673ffffffffffffffffffffffffffffffffffffffff1673ffffffffffffffffffffffffffffffffffffffff168152602001908152602001600020600085815260200190815260200160002060008282546112749190614239565b925050819055505b50505050565b6000600260008473ffffffffffffffffffffffffffffffffffffffff1673ffffffffffffffffffffffffffffffffffffffff16815260200190815260200160002060008373ffffffffffffffffffffffffffffffffffffffff1673ffffffffffffffffffffffffffffffffffffffff16815260200190815260200160002060009054906101000a900460ff16905092915050565b611321338383611f96565b7ffb0fc4852e2d10e0bb68241bebdf2c21df9c8e233ee92e26cacb91ac8c0033a33383836040516113549392919061426d565b60405180910390a15050565b6113686117de565b73ffffffffffffffffffffffffffffffffffffffff168573ffffffffffffffffffffffffffffffffffffffff1614806113ae57506113ad856113a86117de565b611282565b5b6113ed576040517f08c379a00000000000000000000000000000000000000000000000000000000081526004016113e490613aa6565b60405180910390fd5b6113fa8585858585612266565b5050505050565b611409611760565b600073ffffffffffffffffffffffffffffffffffffffff168173ffffffffffffffffffffffffffffffffffffffff1603611478576040517f08c379a000000000000000000000000000000000000000000000000000000000815260040161146f90614324565b60405180910390fd5b61148181611b0a565b50565b600560008273ffffffffffffffffffffffffffffffffffffffff1673ffffffffffffffffffffffffffffffffffffffff16815260200190815260200160002060009054906101000a900460ff1615611511576040517f08c379a0000000000000000000000000000000000000000000000000000000008152600401611508906143dc565b60405180910390fd5b6000600660008373ffffffffffffffffffffffffffffffffffffffff1673ffffffffffffffffffffffffffffffffffffffff16815260200190815260200160002060003373ffffffffffffffffffffffffffffffffffffffff1673ffffffffffffffffffffffffffffffffffffffff1681526020019081526020016000206000848152602001908152602001600020549050600081116115e6576040517f08c379a00000000000000000000000000000000000000000000000000000000081526004016115dd9061446e565b60405180910390fd5b80600460003373ffffffffffffffffffffffffffffffffffffffff1673ffffffffffffffffffffffffffffffffffffffff168152602001908152602001600020600085815260200190815260200160002060008282546116469190613af5565b9250508190555080600660008473ffffffffffffffffffffffffffffffffffffffff1673ffffffffffffffffffffffffffffffffffffffff16815260200190815260200160002060003373ffffffffffffffffffffffffffffffffffffffff1673ffffffffffffffffffffffffffffffffffffffff168152602001908152602001600020600085815260200190815260200160002060008282546116ea9190613af5565b92505081905550505050565b60007f01ffc9a7000000000000000000000000000000000000000000000000000000007bffffffffffffffffffffffffffffffffffffffffffffffffffffffff1916827bffffffffffffffffffffffffffffffffffffffffffffffffffffffff1916149050919050565b6117686117de565b73ffffffffffffffffffffffffffffffffffffffff166117866109a7565b73ffffffffffffffffffffffffffffffffffffffff16146117dc576040517f08c379a00000000000000000000000000000000000000000000000000000000081526004016117d3906144da565b60405180910390fd5b565b600033905090565b815183511461182a576040517f08c379a00000000000000000000000000000000000000000000000000000000081526004016118219061456c565b60405180910390fd5b600073ffffffffffffffffffffffffffffffffffffffff168473ffffffffffffffffffffffffffffffffffffffff1603611899576040517f08c379a0000000000000000000000000000000000000000000000000000000008152600401611890906145fe565b60405180910390fd5b60006118a36117de565b90506118b3818787878787612504565b60005b8451811015611a675760008582815181106118d4576118d3613bbb565b5b6020026020010151905060008583815181106118f3576118f2613bbb565b5b6020026020010151905060006001600084815260200190815260200160002060008b73ffffffffffffffffffffffffffffffffffffffff1673ffffffffffffffffffffffffffffffffffffffff16815260200190815260200160002054905081811015611995576040517f08c379a000000000000000000000000000000000000000000000000000000000815260040161198c90614690565b60405180910390fd5b8181036001600085815260200190815260200160002060008c73ffffffffffffffffffffffffffffffffffffffff1673ffffffffffffffffffffffffffffffffffffffff16815260200190815260200160002081905550816001600085815260200190815260200160002060008b73ffffffffffffffffffffffffffffffffffffffff1673ffffffffffffffffffffffffffffffffffffffff1681526020019081526020016000206000828254611a4c9190614239565b9250508190555050505080611a6090613bea565b90506118b6565b508473ffffffffffffffffffffffffffffffffffffffff168673ffffffffffffffffffffffffffffffffffffffff168273ffffffffffffffffffffffffffffffffffffffff167f4a39dc06d4c0dbc64b70af90fd698a233a518aa5d07e595d983b8c0526c8f7fb8787604051611ade9291906146b0565b60405180910390a4611af48187878787876125e5565b611b028187878787876125ed565b505050505050565b60008060009054906101000a900473ffffffffffffffffffffffffffffffffffffffff169050816000806101000a81548173ffffffffffffffffffffffffffffffffffffffff021916908373ffffffffffffffffffffffffffffffffffffffff1602179055508173ffffffffffffffffffffffffffffffffffffffff168173ffffffffffffffffffffffffffffffffffffffff167f8be0079c531659141344cd1fd0a4f28419497f9722a3daafe3b4186f6b6457e060405160405180910390a35050565b8173ffffffffffffffffffffffffffffffffffffffff168373ffffffffffffffffffffffffffffffffffffffff1603611c3c576040517f08c379a0000000000000000000000000000000000000000000000000000000008152600401611c3390614759565b60405180910390fd5b80600260008573ffffffffffffffffffffffffffffffffffffffff1673ffffffffffffffffffffffffffffffffffffffff16815260200190815260200160002060008473ffffffffffffffffffffffffffffffffffffffff1673ffffffffffffffffffffffffffffffffffffffff16815260200190815260200160002060006101000a81548160ff0219169083151502179055508173ffffffffffffffffffffffffffffffffffffffff168373ffffffffffffffffffffffffffffffffffffffff167f17307eab39ab6107e8899845ad3d59bd9653f200f220920489ca2b5937696c3183604051611d2d9190612bf2565b60405180910390a3505050565b600080600060608085806020019051810190611d569190614863565b9450945094509450945091939590929450565b600073ffffffffffffffffffffffffffffffffffffffff168473ffffffffffffffffffffffffffffffffffffffff1603611dd8576040517f08c379a0000000000000000000000000000000000000000000000000000000008152600401611dcf90614988565b60405180910390fd5b8151835114611e1c576040517f08c379a0000000000000000000000000000000000000000000000000000000008152600401611e139061456c565b60405180910390fd5b6000611e266117de565b9050611e3781600087878787612504565b60005b8451811015611ef157838181518110611e5657611e55613bbb565b5b602002602001015160016000878481518110611e7557611e74613bbb565b5b6020026020010151815260200190815260200160002060008873ffffffffffffffffffffffffffffffffffffffff1673ffffffffffffffffffffffffffffffffffffffff1681526020019081526020016000206000828254611ed79190614239565b925050819055508080611ee990613bea565b915050611e3a565b508473ffffffffffffffffffffffffffffffffffffffff16600073ffffffffffffffffffffffffffffffffffffffff168273ffffffffffffffffffffffffffffffffffffffff167f4a39dc06d4c0dbc64b70af90fd698a233a518aa5d07e595d983b8c0526c8f7fb8787604051611f699291906146b0565b60405180910390a4611f80816000878787876125e5565b611f8f816000878787876125ed565b5050505050565b600073ffffffffffffffffffffffffffffffffffffffff168373ffffffffffffffffffffffffffffffffffffffff1603612005576040517f08c379a0000000000000000000000000000000000000000000000000000000008152600401611ffc90614a1a565b60405180910390fd5b8051825114612049576040517f08c379a00000000000000000000000000000000000000000000000000000000081526004016120409061456c565b60405180910390fd5b60006120536117de565b905061207381856000868660405180602001604052806000815250612504565b60005b83518110156121c257600084828151811061209457612093613bbb565b5b6020026020010151905060008483815181106120b3576120b2613bbb565b5b6020026020010151905060006001600084815260200190815260200160002060008973ffffffffffffffffffffffffffffffffffffffff1673ffffffffffffffffffffffffffffffffffffffff16815260200190815260200160002054905081811015612155576040517f08c379a000000000000000000000000000000000000000000000000000000000815260040161214c90614aac565b60405180910390fd5b8181036001600085815260200190815260200160002060008a73ffffffffffffffffffffffffffffffffffffffff1673ffffffffffffffffffffffffffffffffffffffff1681526020019081526020016000208190555050505080806121ba90613bea565b915050612076565b50600073ffffffffffffffffffffffffffffffffffffffff168473ffffffffffffffffffffffffffffffffffffffff168273ffffffffffffffffffffffffffffffffffffffff167f4a39dc06d4c0dbc64b70af90fd698a233a518aa5d07e595d983b8c0526c8f7fb868660405161223a9291906146b0565b60405180910390a4612260818560008686604051806020016040528060008152506125e5565b50505050565b600073ffffffffffffffffffffffffffffffffffffffff168473ffffffffffffffffffffffffffffffffffffffff16036122d5576040517f08c379a00000000000000000000000000000000000000000000000000000000081526004016122cc906145fe565b60405180910390fd5b60006122df6117de565b905060006122ec856127c4565b905060006122f9856127c4565b9050612309838989858589612504565b60006001600088815260200190815260200160002060008a73ffffffffffffffffffffffffffffffffffffffff1673ffffffffffffffffffffffffffffffffffffffff168152602001908152602001600020549050858110156123a1576040517f08c379a000000000000000000000000000000000000000000000000000000000815260040161239890614690565b60405180910390fd5b8581036001600089815260200190815260200160002060008b73ffffffffffffffffffffffffffffffffffffffff1673ffffffffffffffffffffffffffffffffffffffff16815260200190815260200160002081905550856001600089815260200190815260200160002060008a73ffffffffffffffffffffffffffffffffffffffff1673ffffffffffffffffffffffffffffffffffffffff16815260200190815260200160002060008282546124589190614239565b925050819055508773ffffffffffffffffffffffffffffffffffffffff168973ffffffffffffffffffffffffffffffffffffffff168573ffffffffffffffffffffffffffffffffffffffff167fc3d58168c5ae7397731d063d5bbf3d657854427343f4c083240f7aacaa2d0f628a8a6040516124d5929190614acc565b60405180910390a46124eb848a8a86868a6125e5565b6124f9848a8a8a8a8a61283e565b505050505050505050565b600073ffffffffffffffffffffffffffffffffffffffff168573ffffffffffffffffffffffffffffffffffffffff16146125cf5760005b83518110156125cd576125838685838151811061255b5761255a613bbb565b5b602002602001015185848151811061257657612575613bbb565b5b602002602001015161075e565b6125c2576040517f08c379a00000000000000000000000000000000000000000000000000000000081526004016125b990614b8d565b60405180910390fd5b60018101905061253b565b505b6125dd868686868686612a15565b505050505050565b505050505050565b61260c8473ffffffffffffffffffffffffffffffffffffffff16612a1d565b156127bc578373ffffffffffffffffffffffffffffffffffffffff1663bc197c8187878686866040518663ffffffff1660e01b8152600401612652959493929190614bad565b6020604051808303816000875af192505050801561268e57506040513d601f19601f8201168201806040525081019061268b9190614c2a565b60015b6127335761269a614c64565b806308c379a0036126f657506126ae614c86565b806126b957506126f8565b806040517f08c379a00000000000000000000000000000000000000000000000000000000081526004016126ed9190612cf4565b60405180910390fd5b505b6040517f08c379a000000000000000000000000000000000000000000000000000000000815260040161272a90614d88565b60405180910390fd5b63bc197c8160e01b7bffffffffffffffffffffffffffffffffffffffffffffffffffffffff1916817bffffffffffffffffffffffffffffffffffffffffffffffffffffffff1916146127ba576040517f08c379a00000000000000000000000000000000000000000000000000000000081526004016127b190614e1a565b60405180910390fd5b505b505050505050565b60606000600167ffffffffffffffff8111156127e3576127e2612d20565b5b6040519080825280602002602001820160405280156128115781602001602082028036833780820191505090505b509050828160008151811061282957612828613bbb565b5b60200260200101818152505080915050919050565b61285d8473ffffffffffffffffffffffffffffffffffffffff16612a1d565b15612a0d578373ffffffffffffffffffffffffffffffffffffffff1663f23a6e6187878686866040518663ffffffff1660e01b81526004016128a3959493929190614e3a565b6020604051808303816000875af19250505080156128df57506040513d601f19601f820116820180604052508101906128dc9190614c2a565b60015b612984576128eb614c64565b806308c379a00361294757506128ff614c86565b8061290a5750612949565b806040517f08c379a000000000000000000000000000000000000000000000000000000000815260040161293e9190612cf4565b60405180910390fd5b505b6040517f08c379a000000000000000000000000000000000000000000000000000000000815260040161297b90614d88565b60405180910390fd5b63f23a6e6160e01b7bffffffffffffffffffffffffffffffffffffffffffffffffffffffff1916817bffffffffffffffffffffffffffffffffffffffffffffffffffffffff191614612a0b576040517f08c379a0000000000000000000000000000000000000000000000000000000008152600401612a0290614e1a565b60405180910390fd5b505b505050505050565b505050505050565b6000808273ffffffffffffffffffffffffffffffffffffffff163b119050919050565b6000604051905090565b600080fd5b600080fd5b600073ffffffffffffffffffffffffffffffffffffffff82169050919050565b6000612a7f82612a54565b9050919050565b612a8f81612a74565b8114612a9a57600080fd5b50565b600081359050612aac81612a86565b92915050565b6000819050919050565b612ac581612ab2565b8114612ad057600080fd5b50565b600081359050612ae281612abc565b92915050565b60008060408385031215612aff57612afe612a4a565b5b6000612b0d85828601612a9d565b9250506020612b1e85828601612ad3565b9150509250929050565b612b3181612ab2565b82525050565b6000602082019050612b4c6000830184612b28565b92915050565b60007fffffffff0000000000000000000000000000000000000000000000000000000082169050919050565b612b8781612b52565b8114612b9257600080fd5b50565b600081359050612ba481612b7e565b92915050565b600060208284031215612bc057612bbf612a4a565b5b6000612bce84828501612b95565b91505092915050565b60008115159050919050565b612bec81612bd7565b82525050565b6000602082019050612c076000830184612be3565b92915050565b612c1681612a74565b82525050565b6000602082019050612c316000830184612c0d565b92915050565b600060208284031215612c4d57612c4c612a4a565b5b6000612c5b84828501612ad3565b91505092915050565b600081519050919050565b600082825260208201905092915050565b60005b83811015612c9e578082015181840152602081019050612c83565b60008484015250505050565b6000601f19601f8301169050919050565b6000612cc682612c64565b612cd08185612c6f565b9350612ce0818560208601612c80565b612ce981612caa565b840191505092915050565b60006020820190508181036000830152612d0e8184612cbb565b905092915050565b600080fd5b600080fd5b7f4e487b7100000000000000000000000000000000000000000000000000000000600052604160045260246000fd5b612d5882612caa565b810181811067ffffffffffffffff82111715612d7757612d76612d20565b5b80604052505050565b6000612d8a612a40565b9050612d968282612d4f565b919050565b600067ffffffffffffffff821115612db657612db5612d20565b5b612dbf82612caa565b9050602081019050919050565b82818337600083830152505050565b6000612dee612de984612d9b565b612d80565b905082815260208101848484011115612e0a57612e09612d1b565b5b612e15848285612dcc565b509392505050565b600082601f830112612e3257612e31612d16565b5b8135612e42848260208601612ddb565b91505092915050565b60008060408385031215612e6257612e61612a4a565b5b6000612e7085828601612ad3565b925050602083013567ffffffffffffffff811115612e9157612e90612a4f565b5b612e9d85828601612e1d565b9150509250929050565b600067ffffffffffffffff821115612ec257612ec1612d20565b5b602082029050602081019050919050565b600080fd5b6000612eeb612ee684612ea7565b612d80565b90508083825260208201905060208402830185811115612f0e57612f0d612ed3565b5b835b81811015612f375780612f238882612ad3565b845260208401935050602081019050612f10565b5050509392505050565b600082601f830112612f5657612f55612d16565b5b8135612f66848260208601612ed8565b91505092915050565b600067ffffffffffffffff821115612f8a57612f89612d20565b5b612f9382612caa565b9050602081019050919050565b6000612fb3612fae84612f6f565b612d80565b905082815260208101848484011115612fcf57612fce612d1b565b5b612fda848285612dcc565b509392505050565b600082601f830112612ff757612ff6612d16565b5b8135613007848260208601612fa0565b91505092915050565b600080600080600060a0868803121561302c5761302b612a4a565b5b600061303a88828901612a9d565b955050602061304b88828901612a9d565b945050604086013567ffffffffffffffff81111561306c5761306b612a4f565b5b61307888828901612f41565b935050606086013567ffffffffffffffff81111561309957613098612a4f565b5b6130a588828901612f41565b925050608086013567ffffffffffffffff8111156130c6576130c5612a4f565b5b6130d288828901612fe2565b9150509295509295909350565b6000806000606084860312156130f8576130f7612a4a565b5b600061310686828701612a9d565b935050602061311786828701612ad3565b925050604061312886828701612ad3565b9150509250925092565b600067ffffffffffffffff82111561314d5761314c612d20565b5b602082029050602081019050919050565b600061317161316c84613132565b612d80565b9050808382526020820190506020840283018581111561319457613193612ed3565b5b835b818110156131bd57806131a98882612a9d565b845260208401935050602081019050613196565b5050509392505050565b600082601f8301126131dc576131db612d16565b5b81356131ec84826020860161315e565b91505092915050565b6000806040838503121561320c5761320b612a4a565b5b600083013567ffffffffffffffff81111561322a57613229612a4f565b5b613236858286016131c7565b925050602083013567ffffffffffffffff81111561325757613256612a4f565b5b61326385828601612f41565b9150509250929050565b600081519050919050565b600082825260208201905092915050565b6000819050602082019050919050565b6132a281612ab2565b82525050565b60006132b48383613299565b60208301905092915050565b6000602082019050919050565b60006132d88261326d565b6132e28185613278565b93506132ed83613289565b8060005b8381101561331e57815161330588826132a8565b9750613310836132c0565b9250506001810190506132f1565b5085935050505092915050565b6000602082019050818103600083015261334581846132cd565b905092915050565b6000819050919050565b600061337261336d61336884612a54565b61334d565b612a54565b9050919050565b600061338482613357565b9050919050565b600061339682613379565b9050919050565b6133a68161338b565b82525050565b60006020820190506133c1600083018461339d565b92915050565b6133d081612bd7565b81146133db57600080fd5b50565b6000813590506133ed816133c7565b92915050565b6000806040838503121561340a57613409612a4a565b5b600061341885828601612a9d565b9250506020613429858286016133de565b9150509250929050565b6000806040838503121561344a57613449612a4a565b5b600083013567ffffffffffffffff81111561346857613467612a4f565b5b61347485828601612fe2565b925050602083013567ffffffffffffffff81111561349557613494612a4f565b5b6134a185828601612fe2565b9150509250929050565b6000602082840312156134c1576134c0612a4a565b5b60006134cf84828501612a9d565b91505092915050565b600080600080608085870312156134f2576134f1612a4a565b5b600061350087828801612a9d565b945050602061351187828801612ad3565b935050604061352287828801612ad3565b9250506060613533878288016133de565b91505092959194509250565b6000806040838503121561355657613555612a4a565b5b600061356485828601612a9d565b925050602061357585828601612a9d565b9150509250929050565b6000806040838503121561359657613595612a4a565b5b600083013567ffffffffffffffff8111156135b4576135b3612a4f565b5b6135c085828601612f41565b925050602083013567ffffffffffffffff8111156135e1576135e0612a4f565b5b6135ed85828601612f41565b9150509250929050565b600080600080600060a0868803121561361357613612612a4a565b5b600061362188828901612a9d565b955050602061363288828901612a9d565b945050604061364388828901612ad3565b935050606061365488828901612ad3565b925050608086013567ffffffffffffffff81111561367557613674612a4f565b5b61368188828901612fe2565b9150509295509295909350565b600080604083850312156136a5576136a4612a4a565b5b60006136b385828601612ad3565b92505060206136c485828601612a9d565b9150509250929050565b7f455243313135353a2061646472657373207a65726f206973206e6f742061207660008201527f616c6964206f776e657200000000000000000000000000000000000000000000602082015250565b600061372a602a83612c6f565b9150613735826136ce565b604082019050919050565b600060208201905081810360008301526137598161371d565b9050919050565b7f4e487b7100000000000000000000000000000000000000000000000000000000600052602260045260246000fd5b600060028204905060018216806137a757607f821691505b6020821081036137ba576137b9613760565b5b50919050565b60008190508160005260206000209050919050565b60006020601f8301049050919050565b600082821b905092915050565b6000600883026138227fffffffffffffffffffffffffffffffffffffffffffffffffffffffffffffffff826137e5565b61382c86836137e5565b95508019841693508086168417925050509392505050565b600061385f61385a61385584612ab2565b61334d565b612ab2565b9050919050565b6000819050919050565b61387983613844565b61388d61388582613866565b8484546137f2565b825550505050565b600090565b6138a2613895565b6138ad818484613870565b505050565b5b818110156138d1576138c660008261389a565b6001810190506138b3565b5050565b601f821115613916576138e7816137c0565b6138f0846137d5565b810160208510156138ff578190505b61391361390b856137d5565b8301826138b2565b50505b505050565b600082821c905092915050565b60006139396000198460080261391b565b1980831691505092915050565b60006139528383613928565b9150826002028217905092915050565b61396b82612c64565b67ffffffffffffffff81111561398457613983612d20565b5b61398e825461378f565b6139998282856138d5565b600060209050601f8311600181146139cc57600084156139ba578287015190505b6139c48582613946565b865550613a2c565b601f1984166139da866137c0565b60005b82811015613a02578489015182556001820191506020850194506020810190506139dd565b86831015613a1f5784890151613a1b601f891682613928565b8355505b6001600288020188555050505b505050505050565b7f455243313135353a2063616c6c6572206973206e6f7420746f6b656e206f776e60008201527f6572206f7220617070726f766564000000000000000000000000000000000000602082015250565b6000613a90602e83612c6f565b9150613a9b82613a34565b604082019050919050565b60006020820190508181036000830152613abf81613a83565b9050919050565b7f4e487b7100000000000000000000000000000000000000000000000000000000600052601160045260246000fd5b6000613b0082612ab2565b9150613b0b83612ab2565b9250828203905081811115613b2357613b22613ac6565b5b92915050565b7f455243313135353a206163636f756e747320616e6420696473206c656e67746860008201527f206d69736d617463680000000000000000000000000000000000000000000000602082015250565b6000613b85602983612c6f565b9150613b9082613b29565b604082019050919050565b60006020820190508181036000830152613bb481613b78565b9050919050565b7f4e487b7100000000000000000000000000000000000000000000000000000000600052603260045260246000fd5b6000613bf582612ab2565b91507fffffffffffffffffffffffffffffffffffffffffffffffffffffffffffffffff8203613c2757613c26613ac6565b5b600182019050919050565b600081519050919050565b600082825260208201905092915050565b6000613c5982613c32565b613c638185613c3d565b9350613c73818560208601612c80565b613c7c81612caa565b840191505092915050565b60006060820190508181036000830152613ca18186613c4e565b90508181036020830152613cb58185613c4e565b9050613cc46040830184612c0d565b949350505050565b600081519050613cdb816133c7565b92915050565b600060208284031215613cf757613cf6612a4a565b5b6000613d0584828501613ccc565b91505092915050565b7f4d6163686f56657273653a20496e76616c6964206d696e74696e67206d65737360008201527f6167652100000000000000000000000000000000000000000000000000000000602082015250565b6000613d6a602483612c6f565b9150613d7582613d0e565b604082019050919050565b60006020820190508181036000830152613d9981613d5d565b9050919050565b7f4d6163686f56657273653a2054686973206973206e6f7420796f7572206d696e60008201527f742e000000000000000000000000000000000000000000000000000000000000602082015250565b6000613dfc602283612c6f565b9150613e0782613da0565b604082019050919050565b60006020820190508181036000830152613e2b81613def565b9050919050565b7f4d6163686f56657273653a2054686973206d696e742068617320616c7265616460008201527f79206265656e20636c61696d65642e0000000000000000000000000000000000602082015250565b6000613e8e602f83612c6f565b9150613e9982613e32565b604082019050919050565b60006020820190508181036000830152613ebd81613e81565b9050919050565b7f4d6163686f56657273653a2054686973206d696e74206861732065787069726560008201527f642c20706c656173652063726561746520616e6f74686572206d696e742e0000602082015250565b6000613f20603e83612c6f565b9150613f2b82613ec4565b604082019050919050565b60006020820190508181036000830152613f4f81613f13565b9050919050565b6000604082019050613f6b6000830185612c0d565b613f786020830184612b28565b9392505050565b7f455243313135355472616e7366657261626c653a20436f6e747261637420697360008201527f20616c72656164792073657420746f206465736972656420617070726f76616c60208201527f207374617475732e000000000000000000000000000000000000000000000000604082015250565b6000614001604883612c6f565b915061400c82613f7f565b606082019050919050565b6000602082019050818103600083015261403081613ff4565b9050919050565b7f455243313135355472616e7366657261626c653a204e6f7420617070726f766560008201527f6420746f20736574207472616e73666572207374617475732e00000000000000602082015250565b6000614093603983612c6f565b915061409e82614037565b604082019050919050565b600060208201905081810360008301526140c281614086565b9050919050565b7f455243313135355472616e7366657261626c653a204e6f6e2d7472616e73666560008201527f7261626c6520616d6f756e7420746f6f20736d616c6c20636f6d70617265642060208201527f746f20676976656e20616d6f756e742e00000000000000000000000000000000604082015250565b600061414b605083612c6f565b9150614156826140c9565b606082019050919050565b6000602082019050818103600083015261417a8161413e565b9050919050565b7f455243313135355472616e7366657261626c653a2043616e6e6f74206d616b6560008201527f206e6f6e2d7472616e7366657261626c6520616d6f756e74206772656174657260208201527f207468616e20616d6f756e74206f6620746f6b656e73206f776e65642e000000604082015250565b6000614203605d83612c6f565b915061420e82614181565b606082019050919050565b60006020820190508181036000830152614232816141f6565b9050919050565b600061424482612ab2565b915061424f83612ab2565b925082820190508082111561426757614266613ac6565b5b92915050565b60006060820190506142826000830186612c0d565b818103602083015261429481856132cd565b905081810360408301526142a881846132cd565b9050949350505050565b7f4f776e61626c653a206e6577206f776e657220697320746865207a65726f206160008201527f6464726573730000000000000000000000000000000000000000000000000000602082015250565b600061430e602683612c6f565b9150614319826142b2565b604082019050919050565b6000602082019050818103600083015261433d81614301565b9050919050565b7f455243313135355472616e7366657261626c653a2043616e6e6f74207265766f60008201527f6b65207472616e7366657261626c65207374617475732066726f6d206120636f60208201527f6e7472616374207468617420697320617070726f7665642e0000000000000000604082015250565b60006143c6605883612c6f565b91506143d182614344565b606082019050919050565b600060208201905081810360008301526143f5816143b9565b9050919050565b7f455243313135355472616e7366657261626c653a20546865726520617265206e60008201527f6f20746f6b656e7320746f207265766f6b652e00000000000000000000000000602082015250565b6000614458603383612c6f565b9150614463826143fc565b604082019050919050565b600060208201905081810360008301526144878161444b565b9050919050565b7f4f776e61626c653a2063616c6c6572206973206e6f7420746865206f776e6572600082015250565b60006144c4602083612c6f565b91506144cf8261448e565b602082019050919050565b600060208201905081810360008301526144f3816144b7565b9050919050565b7f455243313135353a2069647320616e6420616d6f756e7473206c656e6774682060008201527f6d69736d61746368000000000000000000000000000000000000000000000000602082015250565b6000614556602883612c6f565b9150614561826144fa565b604082019050919050565b6000602082019050818103600083015261458581614549565b9050919050565b7f455243313135353a207472616e7366657220746f20746865207a65726f20616460008201527f6472657373000000000000000000000000000000000000000000000000000000602082015250565b60006145e8602583612c6f565b91506145f38261458c565b604082019050919050565b60006020820190508181036000830152614617816145db565b9050919050565b7f455243313135353a20696e73756666696369656e742062616c616e636520666f60008201527f72207472616e7366657200000000000000000000000000000000000000000000602082015250565b600061467a602a83612c6f565b91506146858261461e565b604082019050919050565b600060208201905081810360008301526146a98161466d565b9050919050565b600060408201905081810360008301526146ca81856132cd565b905081810360208301526146de81846132cd565b90509392505050565b7f455243313135353a2073657474696e6720617070726f76616c2073746174757360008201527f20666f722073656c660000000000000000000000000000000000000000000000602082015250565b6000614743602983612c6f565b915061474e826146e7565b604082019050919050565b6000602082019050818103600083015261477281614736565b9050919050565b600061478482612a54565b9050919050565b61479481614779565b811461479f57600080fd5b50565b6000815190506147b18161478b565b92915050565b6000815190506147c681612abc565b92915050565b60006147df6147da84612ea7565b612d80565b9050808382526020820190506020840283018581111561480257614801612ed3565b5b835b8181101561482b578061481788826147b7565b845260208401935050602081019050614804565b5050509392505050565b600082601f83011261484a57614849612d16565b5b815161485a8482602086016147cc565b91505092915050565b600080600080600060a0868803121561487f5761487e612a4a565b5b600061488d888289016147a2565b955050602061489e888289016147b7565b94505060406148af888289016147b7565b935050606086015167ffffffffffffffff8111156148d0576148cf612a4f565b5b6148dc88828901614835565b925050608086015167ffffffffffffffff8111156148fd576148fc612a4f565b5b61490988828901614835565b9150509295509295909350565b7f455243313135353a206d696e7420746f20746865207a65726f2061646472657360008201527f7300000000000000000000000000000000000000000000000000000000000000602082015250565b6000614972602183612c6f565b915061497d82614916565b604082019050919050565b600060208201905081810360008301526149a181614965565b9050919050565b7f455243313135353a206275726e2066726f6d20746865207a65726f206164647260008201527f6573730000000000000000000000000000000000000000000000000000000000602082015250565b6000614a04602383612c6f565b9150614a0f826149a8565b604082019050919050565b60006020820190508181036000830152614a33816149f7565b9050919050565b7f455243313135353a206275726e20616d6f756e7420657863656564732062616c60008201527f616e636500000000000000000000000000000000000000000000000000000000602082015250565b6000614a96602483612c6f565b9150614aa182614a3a565b604082019050919050565b60006020820190508181036000830152614ac581614a89565b9050919050565b6000604082019050614ae16000830185612b28565b614aee6020830184612b28565b9392505050565b7f455243313135355472616e7366657261626c653a204174206c65617374206f6e60008201527f6520746f6b656e496420776173206e6f7420616c6c6f77656420746f2074726160208201527f6e736665722077697468207468652073706563696669656420616d6f756e742e604082015250565b6000614b77606083612c6f565b9150614b8282614af5565b606082019050919050565b60006020820190508181036000830152614ba681614b6a565b9050919050565b600060a082019050614bc26000830188612c0d565b614bcf6020830187612c0d565b8181036040830152614be181866132cd565b90508181036060830152614bf581856132cd565b90508181036080830152614c098184613c4e565b90509695505050505050565b600081519050614c2481612b7e565b92915050565b600060208284031215614c4057614c3f612a4a565b5b6000614c4e84828501614c15565b91505092915050565b60008160e01c9050919050565b600060033d1115614c835760046000803e614c80600051614c57565b90505b90565b600060443d10614d1357614c98612a40565b60043d036004823e80513d602482011167ffffffffffffffff82111715614cc0575050614d13565b808201805167ffffffffffffffff811115614cde5750505050614d13565b80602083010160043d038501811115614cfb575050505050614d13565b614d0a82602001850186612d4f565b82955050505050505b90565b7f455243313135353a207472616e7366657220746f206e6f6e2d4552433131353560008201527f526563656976657220696d706c656d656e746572000000000000000000000000602082015250565b6000614d72603483612c6f565b9150614d7d82614d16565b604082019050919050565b60006020820190508181036000830152614da181614d65565b9050919050565b7f455243313135353a204552433131353552656365697665722072656a6563746560008201527f6420746f6b656e73000000000000000000000000000000000000000000000000602082015250565b6000614e04602883612c6f565b9150614e0f82614da8565b604082019050919050565b60006020820190508181036000830152614e3381614df7565b9050919050565b600060a082019050614e4f6000830188612c0d565b614e5c6020830187612c0d565b614e696040830186612b28565b614e766060830185612b28565b8181036080830152614e888184613c4e565b9050969550505050505056fea2646970667358221220b161d36446d4adf8ba3e30ac560f2415d5a0ebd0791f44c5baac8db9c0991c6a64736f6c63430008110033",
  "immutableReferences": {},
  "source": "// SPDX-License-Identifier: MIT\r\npragma solidity ^0.8.7;\r\n\r\nimport \"./Tokens/ERC1155T/ERC1155Transferable.sol\";\r\nimport \"./VerifyBytes.sol\";\r\n\r\ncontract Machoverse is ERC1155Transferable {\r\n    constructor(address _messageSigner, address _verificationAddress)\r\n        ERC1155Transferable(\"\")\r\n    {\r\n        messageSigner = _messageSigner;\r\n        verificationContract = VerifyBytes(_verificationAddress);\r\n    }\r\n\r\n    address public messageSigner;\r\n\r\n    VerifyBytes public verificationContract;\r\n\r\n    mapping(address => mapping(uint256 => bool)) private _accountNonces;\r\n\r\n    mapping(uint256 => string) private _tokenURI;\r\n\r\n    event MintClaimed(address account, uint256 nonce);\r\n\r\n    event GameMint(address account, uint256[] ids, uint256[] amounts);\r\n\r\n    function mintTokens(bytes memory message, bytes memory signature) external {\r\n        require(\r\n            verificationContract.verify(message, signature, messageSigner),\r\n            \"MachoVerse: Invalid minting message!\"\r\n        );\r\n        (\r\n            address minter,\r\n            uint256 validTill,\r\n            uint256 nonce,\r\n            uint256[] memory ids,\r\n            uint256[] memory amounts\r\n        ) = decodeClaimInfo(message);\r\n        require(msg.sender == minter, \"MachoVerse: This is not your mint.\");\r\n        require(\r\n            !_accountNonces[msg.sender][nonce],\r\n            \"MachoVerse: This mint has already been claimed.\"\r\n        );\r\n        require(\r\n            block.timestamp < validTill,\r\n            \"MachoVerse: This mint has expired, please create another mint.\"\r\n        );\r\n        _accountNonces[msg.sender][nonce] = true;\r\n        _mintBatch(msg.sender, ids, amounts, \"\");\r\n        emit MintClaimed(msg.sender, nonce);\r\n    }\r\n\r\n    function decodeClaimInfo(bytes memory message)\r\n        internal\r\n        pure\r\n        returns (\r\n            address,\r\n            uint256,\r\n            uint256,\r\n            uint256[] memory,\r\n            uint256[] memory\r\n        )\r\n    {\r\n        return\r\n            abi.decode(\r\n                message,\r\n                (address, uint256, uint256, uint256[], uint256[])\r\n            );\r\n    }\r\n\r\n    function mintToGame(uint256[] memory ids, uint256[] memory amounts)\r\n        external\r\n    {\r\n        _burnBatch(msg.sender, ids, amounts);\r\n        emit GameMint(msg.sender, ids, amounts);\r\n    }\r\n\r\n    function uri(uint256 tokenId) public view override returns (string memory) {\r\n        return _tokenURI[tokenId];\r\n    }\r\n\r\n    function changeMessageSigner(address newSigner) external onlyOwner {\r\n        messageSigner = newSigner;\r\n    }\r\n\r\n    function updateTokenURI(uint256 tokenId, string memory _uri)\r\n        external\r\n        onlyOwner\r\n    {\r\n        _tokenURI[tokenId] = _uri;\r\n    }\r\n\r\n    /** DEV MODE ONLY FUNCTION\r\n     */\r\n    function deleteAccountNonces(address account, uint256 numNonces) external {\r\n        for (uint256 i = 0; i < numNonces; i++) {\r\n            delete _accountNonces[account][i];\r\n        }\r\n    }\r\n}\r\n",
  "sourcePath": "E:\\Coding\\Websites\\Web3 Game\\Contracts\\Machoverse\\contracts\\Machoverse.sol",
  "compiler": {
    "name": "solc",
    "version": "0.8.17+commit.8df45f5f.Emscripten.clang"
  },
  "schemaVersion": "3.4.10",
  "updatedAt": "2023-06-26T19:32:40.743Z",
  "networkType": "ethereum",
  "devdoc": {
    "kind": "dev",
    "methods": {
      "balanceOf(address,uint256)": {
        "details": "See {IERC1155-balanceOf}. Requirements: - `account` cannot be the zero address."
      },
      "balanceOfBatch(address[],uint256[])": {
        "details": "See {IERC1155-balanceOfBatch}. Requirements: - `accounts` and `ids` must have the same length."
      },
      "isApprovedForAll(address,address)": {
        "details": "See {IERC1155-isApprovedForAll}."
      },
      "isTransferable(address,uint256,uint256)": {
        "details": "Determines if 'amount' of 'tokenId' is able to be transfered or not",
        "params": {
          "amount": "the amount that wants to be transfered",
          "tokenId": "the tokenId to check the status of",
          "user": "the address of the user that wants to transfer"
        },
        "returns": {
          "_0": "bool whether or not 'amount' of 'tokenId' can be transfered from 'user'"
        }
      },
      "owner()": {
        "details": "Returns the address of the current owner."
      },
      "renounceOwnership()": {
        "details": "Leaves the contract without owner. It will not be possible to call `onlyOwner` functions. Can only be called by the current owner. NOTE: Renouncing ownership will leave the contract without an owner, thereby disabling any functionality that is only available to the owner."
      },
      "revokeTransferable(uint256,address)": {
        "details": "Allows users to reclaim the transferable status on their tokens if it was set by a contract that is no longer approved",
        "params": {
          "revokedContract": "The address of a contract that is no longer approved",
          "tokenId": "The tokenId to reclaim transferable status for"
        }
      },
      "safeBatchTransferFrom(address,address,uint256[],uint256[],bytes)": {
        "details": "See {IERC1155-safeBatchTransferFrom}."
      },
      "safeTransferFrom(address,address,uint256,uint256,bytes)": {
        "details": "See {IERC1155-safeTransferFrom}."
      },
      "setApprovalForAll(address,bool)": {
        "details": "See {IERC1155-setApprovalForAll}."
      },
      "setContractApproval(address,bool)": {
        "details": "Allows for contracts to be whitelisted so they can change the transferable status of tokens",
        "params": {
          "approve": "The approval status for the contract address (true means the contract is approved to set token transferable status)",
          "contractAddress": "The contract address to change the approval status for"
        }
      },
      "setTransferable(address,uint256,uint256,bool)": {
        "details": "Changes the transferable status of 'tokenId' by 'amount'.",
        "params": {
          "amount": "The amount of 'tokenId' that needs to be updated",
          "canTransfer": "Determines whether the tokens are going to be non-transferable or transferable",
          "tokenId": "The tokenId that needs it's transferable status updated",
          "user": "The address of the user to update the transferable tokens for"
        }
      },
      "supportsInterface(bytes4)": {
        "details": "See {IERC165-supportsInterface}."
      },
      "transferOwnership(address)": {
        "details": "Transfers ownership of the contract to a new account (`newOwner`). Can only be called by the current owner."
      }
    },
    "version": 1
  },
  "userdoc": {
    "kind": "user",
    "methods": {
      "deleteAccountNonces(address,uint256)": {
        "notice": "DEV MODE ONLY FUNCTION"
      },
      "setTransferable(address,uint256,uint256,bool)": {
        "notice": "Ensures that the user's does not have more 'non-transferable' tokens than their actual balance"
      }
    },
    "version": 1
  }
}