{
  "contractName": "MachoFaucet",
  "abi": [
    {
      "inputs": [
        {
          "internalType": "address",
          "name": "_machoUSD",
          "type": "address"
        },
        {
          "internalType": "address",
          "name": "_machoMagic",
          "type": "address"
        },
        {
          "internalType": "address",
          "name": "_machoCoin",
          "type": "address"
        }
      ],
      "stateMutability": "nonpayable",
      "type": "constructor"
    },
    {
      "inputs": [],
      "name": "mintMachoUSD",
      "outputs": [],
      "stateMutability": "nonpayable",
      "type": "function"
    },
    {
      "inputs": [],
      "name": "mintMachoMagic",
      "outputs": [],
      "stateMutability": "nonpayable",
      "type": "function"
    },
    {
      "inputs": [
        {
          "internalType": "uint256",
          "name": "tokenId",
          "type": "uint256"
        }
      ],
      "name": "mintMachoCoin",
      "outputs": [],
      "stateMutability": "nonpayable",
      "type": "function"
    }
  ],
  "bytecode": "0x608060405234801561001057600080fd5b506040516104953803806104958339818101604052810190610032919061015f565b826000806101000a81548173ffffffffffffffffffffffffffffffffffffffff021916908373ffffffffffffffffffffffffffffffffffffffff16021790555081600160006101000a81548173ffffffffffffffffffffffffffffffffffffffff021916908373ffffffffffffffffffffffffffffffffffffffff16021790555080600260006101000a81548173ffffffffffffffffffffffffffffffffffffffff021916908373ffffffffffffffffffffffffffffffffffffffff1602179055505050506101b2565b600080fd5b600073ffffffffffffffffffffffffffffffffffffffff82169050919050565b600061012c82610101565b9050919050565b61013c81610121565b811461014757600080fd5b50565b60008151905061015981610133565b92915050565b600080600060608486031215610178576101776100fc565b5b60006101868682870161014a565b93505060206101978682870161014a565b92505060406101a88682870161014a565b9150509250925092565b6102d4806101c16000396000f3fe608060405234801561001057600080fd5b50600436106100415760003560e01c80632f942feb14610046578063893dde6914610062578063c75047611461006c575b600080fd5b610060600480360381019061005b9190610247565b610076565b005b61006a610106565b005b61007461018a565b005b600260009054906101000a900473ffffffffffffffffffffffffffffffffffffffff1673ffffffffffffffffffffffffffffffffffffffff1663a0712d68826040518263ffffffff1660e01b81526004016100d19190610283565b600060405180830381600087803b1580156100eb57600080fd5b505af11580156100ff573d6000803e3d6000fd5b5050505050565b600160009054906101000a900473ffffffffffffffffffffffffffffffffffffffff1673ffffffffffffffffffffffffffffffffffffffff16631249c58b6040518163ffffffff1660e01b8152600401600060405180830381600087803b15801561017057600080fd5b505af1158015610184573d6000803e3d6000fd5b50505050565b60008054906101000a900473ffffffffffffffffffffffffffffffffffffffff1673ffffffffffffffffffffffffffffffffffffffff16631249c58b6040518163ffffffff1660e01b8152600401600060405180830381600087803b1580156101f257600080fd5b505af1158015610206573d6000803e3d6000fd5b50505050565b600080fd5b6000819050919050565b61022481610211565b811461022f57600080fd5b50565b6000813590506102418161021b565b92915050565b60006020828403121561025d5761025c61020c565b5b600061026b84828501610232565b91505092915050565b61027d81610211565b82525050565b60006020820190506102986000830184610274565b9291505056fea26469706673582212202be4617e0f2e8d550d90a5ac50464cdea3271c182e5c528f4da527b65d7ce4fe64736f6c63430008110033",
  "immutableReferences": {},
  "source": "// SPDX-License-Identifier: GPL-3.0\r\npragma solidity ^0.8.7;\r\n\r\nimport \"./MachoUSD.sol\";\r\nimport \"./MachoMagic.sol\";\r\nimport \"./MachoCoin.sol\";\r\n\r\ncontract MachoFaucet {\r\n    MachoUSD machoUSD;\r\n    MachoMagic machoMagic;\r\n    MachoCoin machoCoin;\r\n\r\n    constructor(\r\n        address _machoUSD,\r\n        address _machoMagic,\r\n        address _machoCoin\r\n    ) {\r\n        machoUSD = MachoUSD(_machoUSD);\r\n        machoMagic = MachoMagic(_machoMagic);\r\n        machoCoin = MachoCoin(_machoCoin);\r\n    }\r\n\r\n    function mintMachoUSD() public {\r\n        machoUSD.mint();\r\n    }\r\n\r\n    function mintMachoMagic() public {\r\n        machoMagic.mint();\r\n    }\r\n\r\n    function mintMachoCoin(uint256 tokenId) public {\r\n        machoCoin.mint(tokenId);\r\n    }\r\n}\r\n",
  "sourcePath": "E:\\Coding\\Websites\\Web3 Game\\Contracts\\Faucet\\contracts\\MachoFaucet.sol",
  "compiler": {
    "name": "solc",
    "version": "0.8.17+commit.8df45f5f.Emscripten.clang"
  },
  "schemaVersion": "3.4.10",
  "updatedAt": "2023-06-16T19:31:04.149Z",
  "networkType": "ethereum",
  "devdoc": {
    "kind": "dev",
    "methods": {},
    "version": 1
  },
  "userdoc": {
    "kind": "user",
    "methods": {},
    "version": 1
  }
}